{"contracts/Rollup.sol":{"RollupNC":{"abi":[{"anonymous":false,"inputs":[{"indexed":false,"internalType":"uint256","name":"oldRoot","type":"uint256"},{"indexed":false,"internalType":"uint256","name":"newRoot","type":"uint256"},{"indexed":false,"internalType":"uint8","name":"numAdded","type":"uint8"}],"name":"ConfirmDeposit","type":"event"},{"anonymous":false,"inputs":[{"indexed":false,"internalType":"uint256","name":"tokenType","type":"uint256"},{"indexed":false,"internalType":"address","name":"tokenContract","type":"address"}],"name":"RegisteredToken","type":"event"},{"anonymous":false,"inputs":[{"indexed":false,"internalType":"uint256[2]","name":"pubkey","type":"uint256[2]"},{"indexed":false,"internalType":"uint256","name":"amount","type":"uint256"},{"indexed":false,"internalType":"uint256","name":"tokenType","type":"uint256"}],"name":"RequestDeposit","type":"event"},{"anonymous":false,"inputs":[{"indexed":false,"internalType":"uint256","name":"currentRoot","type":"uint256"},{"indexed":false,"internalType":"uint256","name":"oldRoot","type":"uint256"},{"indexed":false,"internalType":"uint256","name":"txRoot","type":"uint256"}],"name":"UpdatedState","type":"event"},{"anonymous":false,"inputs":[{"indexed":false,"internalType":"uint256","name":"leaf","type":"uint256"},{"indexed":false,"internalType":"address","name":"recipient","type":"address"}],"name":"Withdrawn","type":"event"},{"inputs":[],"name":"ZERO","outputs":[{"internalType":"uint256","name":"","type":"uint256"}],"stateMutability":"view","type":"function"},{"inputs":[],"name":"balDepth","outputs":[{"internalType":"uint256","name":"","type":"uint256"}],"stateMutability":"view","type":"function"},{"inputs":[],"name":"coordinator","outputs":[{"internalType":"address","name":"","type":"address"}],"stateMutability":"view","type":"function"},{"inputs":[],"name":"currentRoot","outputs":[{"internalType":"uint256","name":"","type":"uint256"}],"stateMutability":"view","type":"function"},{"inputs":[],"name":"depositQueueEnd","outputs":[{"internalType":"uint256","name":"","type":"uint256"}],"stateMutability":"view","type":"function"},{"inputs":[],"name":"depositQueueSize","outputs":[{"internalType":"uint8","name":"","type":"uint8"}],"stateMutability":"view","type":"function"},{"inputs":[],"name":"depositQueueStart","outputs":[{"internalType":"uint256","name":"","type":"uint256"}],"stateMutability":"view","type":"function"},{"inputs":[],"name":"depositSubtreeHeight","outputs":[{"internalType":"uint8","name":"","type":"uint8"}],"stateMutability":"view","type":"function"},{"inputs":[{"internalType":"uint256","name":"","type":"uint256"}],"name":"deposits","outputs":[{"internalType":"uint256","name":"","type":"uint256"}],"stateMutability":"view","type":"function"},{"inputs":[{"internalType":"uint256","name":"","type":"uint256"}],"name":"pendingDeposits","outputs":[{"internalType":"uint256","name":"","type":"uint256"}],"stateMutability":"view","type":"function"},{"inputs":[],"name":"registry","outputs":[{"internalType":"contract ITokenRegistry","name":"","type":"address"}],"stateMutability":"view","type":"function"},{"inputs":[],"name":"txDepth","outputs":[{"internalType":"uint256","name":"","type":"uint256"}],"stateMutability":"view","type":"function"},{"inputs":[],"name":"updateNumber","outputs":[{"internalType":"uint256","name":"","type":"uint256"}],"stateMutability":"view","type":"function"},{"inputs":[{"internalType":"uint256","name":"","type":"uint256"}],"name":"updates","outputs":[{"internalType":"uint256","name":"","type":"uint256"}],"stateMutability":"view","type":"function"},{"inputs":[{"internalType":"uint256","name":"","type":"uint256"}],"name":"withdraws","outputs":[{"internalType":"bool","name":"","type":"bool"}],"stateMutability":"view","type":"function"},{"inputs":[{"internalType":"uint256","name":"","type":"uint256"}],"name":"zeroCache","outputs":[{"internalType":"uint256","name":"","type":"uint256"}],"stateMutability":"view","type":"function"}],"devdoc":{"kind":"dev","methods":{},"title":"implementation of Non-custodial rollup","version":1},"evm":{"bytecode":{"linkReferences":{},"object":"608060405234801561001057600080fd5b506102dc806100206000396000f3fe608060405234801561001057600080fd5b50600436106101005760003560e01c806367ef678511610097578063b02c43d011610066578063b02c43d014610210578063b4c2f72714610230578063c34ca64114610250578063fdab463d1461026357600080fd5b806367ef6785146101c75780637b103999146101d45780639be7e83f146101e7578063a7932794146101f057600080fd5b8063412964ea116100d3578063412964ea14610179578063426bf3941461018257806355466c371461018b57806358fa63ca146101be57600080fd5b80630a009097146101055780631b6a2481146101355780632882dd981461014c5780633081010214610170575b600080fd5b600754610118906001600160a01b031681565b6040516001600160a01b0390911681526020015b60405180910390f35b61013e600b5481565b60405190815260200161012c565b600a5461015e90610100900460ff1681565b60405160ff909116815260200161012c565b61013e60095481565b61013e60035481565b61013e60085481565b6101ae61019936600461028d565b600e6020526000908152604090205460ff1681565b604051901515815260200161012c565b61013e60045481565b600a5461015e9060ff1681565b600154610118906001600160a01b031681565b61013e60025481565b61013e6101fe36600461028d565b60006020819052908152604090205481565b61013e61021e36600461028d565b600c6020526000908152604090205481565b61013e61023e36600461028d565b600d6020526000908152604090205481565b61013e61025e36600461028d565b61026c565b61013e60065481565b6005818154811061027c57600080fd5b600091825260209091200154905081565b60006020828403121561029f57600080fd5b503591905056fea2646970667358221220579bdcc5b539f0949d0c85b0026c63ea31a2fa8f094b692bcaba7a044824693164736f6c63430008130033","opcodes":"PUSH1 0x80 PUSH1 0x40 MSTORE CALLVALUE DUP1 ISZERO PUSH2 0x10 JUMPI PUSH1 0x0 DUP1 REVERT JUMPDEST POP PUSH2 0x2DC DUP1 PUSH2 0x20 PUSH1 0x0 CODECOPY PUSH1 0x0 RETURN INVALID PUSH1 0x80 PUSH1 0x40 MSTORE CALLVALUE DUP1 ISZERO PUSH2 0x10 JUMPI PUSH1 0x0 DUP1 REVERT JUMPDEST POP PUSH1 0x4 CALLDATASIZE LT PUSH2 0x100 JUMPI PUSH1 0x0 CALLDATALOAD PUSH1 0xE0 SHR DUP1 PUSH4 0x67EF6785 GT PUSH2 0x97 JUMPI DUP1 PUSH4 0xB02C43D0 GT PUSH2 0x66 JUMPI DUP1 PUSH4 0xB02C43D0 EQ PUSH2 0x210 JUMPI DUP1 PUSH4 0xB4C2F727 EQ PUSH2 0x230 JUMPI DUP1 PUSH4 0xC34CA641 EQ PUSH2 0x250 JUMPI DUP1 PUSH4 0xFDAB463D EQ PUSH2 0x263 JUMPI PUSH1 0x0 DUP1 REVERT JUMPDEST DUP1 PUSH4 0x67EF6785 EQ PUSH2 0x1C7 JUMPI DUP1 PUSH4 0x7B103999 EQ PUSH2 0x1D4 JUMPI DUP1 PUSH4 0x9BE7E83F EQ PUSH2 0x1E7 JUMPI DUP1 PUSH4 0xA7932794 EQ PUSH2 0x1F0 JUMPI PUSH1 0x0 DUP1 REVERT JUMPDEST DUP1 PUSH4 0x412964EA GT PUSH2 0xD3 JUMPI DUP1 PUSH4 0x412964EA EQ PUSH2 0x179 JUMPI DUP1 PUSH4 0x426BF394 EQ PUSH2 0x182 JUMPI DUP1 PUSH4 0x55466C37 EQ PUSH2 0x18B JUMPI DUP1 PUSH4 0x58FA63CA EQ PUSH2 0x1BE JUMPI PUSH1 0x0 DUP1 REVERT JUMPDEST DUP1 PUSH4 0xA009097 EQ PUSH2 0x105 JUMPI DUP1 PUSH4 0x1B6A2481 EQ PUSH2 0x135 JUMPI DUP1 PUSH4 0x2882DD98 EQ PUSH2 0x14C JUMPI DUP1 PUSH4 0x30810102 EQ PUSH2 0x170 JUMPI JUMPDEST PUSH1 0x0 DUP1 REVERT JUMPDEST PUSH1 0x7 SLOAD PUSH2 0x118 SWAP1 PUSH1 0x1 PUSH1 0x1 PUSH1 0xA0 SHL SUB AND DUP2 JUMP JUMPDEST PUSH1 0x40 MLOAD PUSH1 0x1 PUSH1 0x1 PUSH1 0xA0 SHL SUB SWAP1 SWAP2 AND DUP2 MSTORE PUSH1 0x20 ADD JUMPDEST PUSH1 0x40 MLOAD DUP1 SWAP2 SUB SWAP1 RETURN JUMPDEST PUSH2 0x13E PUSH1 0xB SLOAD DUP2 JUMP JUMPDEST PUSH1 0x40 MLOAD SWAP1 DUP2 MSTORE PUSH1 0x20 ADD PUSH2 0x12C JUMP JUMPDEST PUSH1 0xA SLOAD PUSH2 0x15E SWAP1 PUSH2 0x100 SWAP1 DIV PUSH1 0xFF AND DUP2 JUMP JUMPDEST PUSH1 0x40 MLOAD PUSH1 0xFF SWAP1 SWAP2 AND DUP2 MSTORE PUSH1 0x20 ADD PUSH2 0x12C JUMP JUMPDEST PUSH2 0x13E PUSH1 0x9 SLOAD DUP2 JUMP JUMPDEST PUSH2 0x13E PUSH1 0x3 SLOAD DUP2 JUMP JUMPDEST PUSH2 0x13E PUSH1 0x8 SLOAD DUP2 JUMP JUMPDEST PUSH2 0x1AE PUSH2 0x199 CALLDATASIZE PUSH1 0x4 PUSH2 0x28D JUMP JUMPDEST PUSH1 0xE PUSH1 0x20 MSTORE PUSH1 0x0 SWAP1 DUP2 MSTORE PUSH1 0x40 SWAP1 KECCAK256 SLOAD PUSH1 0xFF AND DUP2 JUMP JUMPDEST PUSH1 0x40 MLOAD SWAP1 ISZERO ISZERO DUP2 MSTORE PUSH1 0x20 ADD PUSH2 0x12C JUMP JUMPDEST PUSH2 0x13E PUSH1 0x4 SLOAD DUP2 JUMP JUMPDEST PUSH1 0xA SLOAD PUSH2 0x15E SWAP1 PUSH1 0xFF AND DUP2 JUMP JUMPDEST PUSH1 0x1 SLOAD PUSH2 0x118 SWAP1 PUSH1 0x1 PUSH1 0x1 PUSH1 0xA0 SHL SUB AND DUP2 JUMP JUMPDEST PUSH2 0x13E PUSH1 0x2 SLOAD DUP2 JUMP JUMPDEST PUSH2 0x13E PUSH2 0x1FE CALLDATASIZE PUSH1 0x4 PUSH2 0x28D JUMP JUMPDEST PUSH1 0x0 PUSH1 0x20 DUP2 SWAP1 MSTORE SWAP1 DUP2 MSTORE PUSH1 0x40 SWAP1 KECCAK256 SLOAD DUP2 JUMP JUMPDEST PUSH2 0x13E PUSH2 0x21E CALLDATASIZE PUSH1 0x4 PUSH2 0x28D JUMP JUMPDEST PUSH1 0xC PUSH1 0x20 MSTORE PUSH1 0x0 SWAP1 DUP2 MSTORE PUSH1 0x40 SWAP1 KECCAK256 SLOAD DUP2 JUMP JUMPDEST PUSH2 0x13E PUSH2 0x23E CALLDATASIZE PUSH1 0x4 PUSH2 0x28D JUMP JUMPDEST PUSH1 0xD PUSH1 0x20 MSTORE PUSH1 0x0 SWAP1 DUP2 MSTORE PUSH1 0x40 SWAP1 KECCAK256 SLOAD DUP2 JUMP JUMPDEST PUSH2 0x13E PUSH2 0x25E CALLDATASIZE PUSH1 0x4 PUSH2 0x28D JUMP JUMPDEST PUSH2 0x26C JUMP JUMPDEST PUSH2 0x13E PUSH1 0x6 SLOAD DUP2 JUMP JUMPDEST PUSH1 0x5 DUP2 DUP2 SLOAD DUP2 LT PUSH2 0x27C JUMPI PUSH1 0x0 DUP1 REVERT JUMPDEST PUSH1 0x0 SWAP2 DUP3 MSTORE PUSH1 0x20 SWAP1 SWAP2 KECCAK256 ADD SLOAD SWAP1 POP DUP2 JUMP JUMPDEST PUSH1 0x0 PUSH1 0x20 DUP3 DUP5 SUB SLT ISZERO PUSH2 0x29F JUMPI PUSH1 0x0 DUP1 REVERT JUMPDEST POP CALLDATALOAD SWAP2 SWAP1 POP JUMP INVALID LOG2 PUSH5 0x6970667358 0x22 SLT KECCAK256 JUMPI SWAP12 0xDC 0xC5 0xB5 CODECOPY CREATE SWAP5 SWAP14 0xC DUP6 0xB0 MUL PUSH13 0x63EA31A2FA8F094B692BCABA7A DIV BASEFEE 0x24 PUSH10 0x3164736F6C6343000813 STOP CALLER "},"gasEstimates":{"creation":{"codeDepositCost":"146400","executionCost":"190","totalCost":"146590"},"external":{"ZERO()":"2384","balDepth()":"2362","coordinator()":"2350","currentRoot()":"2383","depositQueueEnd()":"2385","depositQueueSize()":"2336","depositQueueStart()":"2340","depositSubtreeHeight()":"2392","deposits(uint256)":"2460","pendingDeposits(uint256)":"2530","registry()":"2371","txDepth()":"2318","updateNumber()":"2341","updates(uint256)":"2482","withdraws(uint256)":"2517","zeroCache(uint256)":"4641"}},"methodIdentifiers":{"ZERO()":"58fa63ca","balDepth()":"9be7e83f","coordinator()":"0a009097","currentRoot()":"fdab463d","depositQueueEnd()":"30810102","depositQueueSize()":"67ef6785","depositQueueStart()":"426bf394","depositSubtreeHeight()":"2882dd98","deposits(uint256)":"b02c43d0","pendingDeposits(uint256)":"a7932794","registry()":"7b103999","txDepth()":"412964ea","updateNumber()":"1b6a2481","updates(uint256)":"b4c2f727","withdraws(uint256)":"55466c37","zeroCache(uint256)":"c34ca641"}},"storageLayout":{"storage":[{"astId":87,"contract":"contracts/Rollup.sol:RollupNC","label":"pendingDeposits","offset":0,"slot":"0","type":"t_mapping(t_uint256,t_uint256)"},{"astId":90,"contract":"contracts/Rollup.sol:RollupNC","label":"registry","offset":0,"slot":"1","type":"t_contract(ITokenRegistry)370"},{"astId":92,"contract":"contracts/Rollup.sol:RollupNC","label":"balDepth","offset":0,"slot":"2","type":"t_uint256"},{"astId":94,"contract":"contracts/Rollup.sol:RollupNC","label":"txDepth","offset":0,"slot":"3","type":"t_uint256"},{"astId":96,"contract":"contracts/Rollup.sol:RollupNC","label":"ZERO","offset":0,"slot":"4","type":"t_uint256"},{"astId":99,"contract":"contracts/Rollup.sol:RollupNC","label":"zeroCache","offset":0,"slot":"5","type":"t_array(t_uint256)dyn_storage"},{"astId":101,"contract":"contracts/Rollup.sol:RollupNC","label":"currentRoot","offset":0,"slot":"6","type":"t_uint256"},{"astId":103,"contract":"contracts/Rollup.sol:RollupNC","label":"coordinator","offset":0,"slot":"7","type":"t_address"},{"astId":105,"contract":"contracts/Rollup.sol:RollupNC","label":"depositQueueStart","offset":0,"slot":"8","type":"t_uint256"},{"astId":107,"contract":"contracts/Rollup.sol:RollupNC","label":"depositQueueEnd","offset":0,"slot":"9","type":"t_uint256"},{"astId":109,"contract":"contracts/Rollup.sol:RollupNC","label":"depositQueueSize","offset":0,"slot":"10","type":"t_uint8"},{"astId":111,"contract":"contracts/Rollup.sol:RollupNC","label":"depositSubtreeHeight","offset":1,"slot":"10","type":"t_uint8"},{"astId":113,"contract":"contracts/Rollup.sol:RollupNC","label":"updateNumber","offset":0,"slot":"11","type":"t_uint256"},{"astId":117,"contract":"contracts/Rollup.sol:RollupNC","label":"deposits","offset":0,"slot":"12","type":"t_mapping(t_uint256,t_uint256)"},{"astId":121,"contract":"contracts/Rollup.sol:RollupNC","label":"updates","offset":0,"slot":"13","type":"t_mapping(t_uint256,t_uint256)"},{"astId":125,"contract":"contracts/Rollup.sol:RollupNC","label":"withdraws","offset":0,"slot":"14","type":"t_mapping(t_uint256,t_bool)"}],"types":{"t_address":{"encoding":"inplace","label":"address","numberOfBytes":"20"},"t_array(t_uint256)dyn_storage":{"base":"t_uint256","encoding":"dynamic_array","label":"uint256[]","numberOfBytes":"32"},"t_bool":{"encoding":"inplace","label":"bool","numberOfBytes":"1"},"t_contract(ITokenRegistry)370":{"encoding":"inplace","label":"contract ITokenRegistry","numberOfBytes":"20"},"t_mapping(t_uint256,t_bool)":{"encoding":"mapping","key":"t_uint256","label":"mapping(uint256 => bool)","numberOfBytes":"32","value":"t_bool"},"t_mapping(t_uint256,t_uint256)":{"encoding":"mapping","key":"t_uint256","label":"mapping(uint256 => uint256)","numberOfBytes":"32","value":"t_uint256"},"t_uint256":{"encoding":"inplace","label":"uint256","numberOfBytes":"32"},"t_uint8":{"encoding":"inplace","label":"uint8","numberOfBytes":"1"}}},"userdoc":{"kind":"user","methods":{},"version":1}}}}