{"contracts/TokenRegistry.sol":{"TokenRegistry":{"abi":[{"inputs":[],"stateMutability":"nonpayable","type":"constructor"},{"anonymous":false,"inputs":[{"indexed":false,"internalType":"address","name":"_rollup","type":"address"}],"name":"RollupSet","type":"event"},{"anonymous":false,"inputs":[{"indexed":false,"internalType":"address","name":"_token","type":"address"}],"name":"TokenPending","type":"event"},{"anonymous":false,"inputs":[{"indexed":false,"internalType":"uint256","name":"_index","type":"uint256"}],"name":"TokenRegistered","type":"event"},{"inputs":[{"internalType":"address","name":"_token","type":"address"}],"name":"approveToken","outputs":[],"stateMutability":"nonpayable","type":"function"},{"inputs":[],"name":"coordinator","outputs":[{"internalType":"address","name":"","type":"address"}],"stateMutability":"view","type":"function"},{"inputs":[{"internalType":"address","name":"_token","type":"address"}],"name":"registerToken","outputs":[],"stateMutability":"nonpayable","type":"function"},{"inputs":[{"internalType":"uint256","name":"","type":"uint256"}],"name":"registry","outputs":[{"internalType":"address","name":"","type":"address"}],"stateMutability":"view","type":"function"},{"inputs":[],"name":"registryIndex","outputs":[{"internalType":"uint256","name":"","type":"uint256"}],"stateMutability":"view","type":"function"},{"inputs":[],"name":"rollup","outputs":[{"internalType":"address","name":"","type":"address"}],"stateMutability":"view","type":"function"},{"inputs":[{"internalType":"address","name":"_rollup","type":"address"}],"name":"setRollup","outputs":[],"stateMutability":"nonpayable","type":"function"},{"inputs":[{"internalType":"address","name":"","type":"address"}],"name":"state","outputs":[{"internalType":"enum TokenRegistration","name":"","type":"uint8"}],"stateMutability":"view","type":"function"}],"devdoc":{"kind":"dev","methods":{"approveToken(address)":{"details":"modifier onlyRollup","params":{"_token":"- the contract address of the ERC20 to approve registry proposal for"}},"registerToken(address)":{"params":{"_token":"- the contract address of the ERC20 proposed for registry"}},"setRollup(address)":{"details":"modifier onlyCoordinator","params":{"_rollup":"- the contract address to designate as the rollup within the registry contract"}}},"title":"Registry of ERC20 tokens that the Rollup can process","version":1},"evm":{"bytecode":{"linkReferences":{},"object":"608060405234801561001057600080fd5b50600080546001600160a01b0319163317905560016004556104fa806100376000396000f3fe608060405234801561001057600080fd5b50600436106100885760003560e01c8063763131a01161005b578063763131a01461012b57806380b2edd81461013e578063cb23bcb514610151578063d1f807d81461016457600080fd5b806309824a801461008d5780630a009097146100a257806331e658a5146100d25780635893253c14610102575b600080fd5b6100a061009b366004610400565b61017b565b005b6000546100b5906001600160a01b031681565b6040516001600160a01b0390911681526020015b60405180910390f35b6100f56100e0366004610400565b60026020526000908152604090205460ff1681565b6040516100c99190610446565b6100b561011036600461046e565b6003602052600090815260409020546001600160a01b031681565b6100a0610139366004610400565b610261565b6100a061014c366004610400565b6102c9565b6001546100b5906001600160a01b031681565b61016d60045481565b6040519081526020016100c9565b6001600160a01b038116600090815260026020819052604082205460ff16908111156101a9576101a9610430565b146102065760405162461bcd60e51b815260206004820152602260248201527f546f6b656e20616c72656164792070656e64696e672f20726567697374657265604482015261642160f01b60648201526084015b60405180910390fd5b6001600160a01b038116600081815260026020908152604091829020805460ff1916600117905590519182527f750347718cf11f205b67495b45c5173447387523f3175c795ee6e1a2bbcdc35091015b60405180910390a150565b6000546001600160a01b0316331461027b5761027b610487565b600180546001600160a01b0319166001600160a01b0383169081179091556040519081527f7e8ce0bde07da6b99aedf3acf71a4ab99699f774d164be03d69bfe6d5a6f527290602001610256565b6001546001600160a01b031633146102e3576102e3610487565b60016001600160a01b03821660009081526002602081905260409091205460ff169081111561031457610314610430565b1461036c5760405162461bcd60e51b815260206004820152602260248201527f546f6b656e206973206e6f742070656e64696e6720726567697374726174696f6044820152616e2160f01b60648201526084016101fd565b60016004600082825461037f919061049d565b9091555050600454600090815260036020908152604080832080546001600160a01b0319166001600160a01b0386169081179091558352600291829052909120805460ff191660018302179055507fd7aa35c4dfada1a1408fbca910f9d1a5fb7827f7f5e2ee3bafb5907d22c7c85e60045460405161025691815260200190565b60006020828403121561041257600080fd5b81356001600160a01b038116811461042957600080fd5b9392505050565b634e487b7160e01b600052602160045260246000fd5b602081016003831061046857634e487b7160e01b600052602160045260246000fd5b91905290565b60006020828403121561048057600080fd5b5035919050565b634e487b7160e01b600052600160045260246000fd5b808201808211156104be57634e487b7160e01b600052601160045260246000fd5b9291505056fea264697066735822122083139fa731fc396913131a4cd352d7545ab0297cd9d05ab5c0e4d5aa3ca16b3764736f6c63430008130033","opcodes":"PUSH1 0x80 PUSH1 0x40 MSTORE CALLVALUE DUP1 ISZERO PUSH2 0x10 JUMPI PUSH1 0x0 DUP1 REVERT JUMPDEST POP PUSH1 0x0 DUP1 SLOAD PUSH1 0x1 PUSH1 0x1 PUSH1 0xA0 SHL SUB NOT AND CALLER OR SWAP1 SSTORE PUSH1 0x1 PUSH1 0x4 SSTORE PUSH2 0x4FA DUP1 PUSH2 0x37 PUSH1 0x0 CODECOPY PUSH1 0x0 RETURN INVALID PUSH1 0x80 PUSH1 0x40 MSTORE CALLVALUE DUP1 ISZERO PUSH2 0x10 JUMPI PUSH1 0x0 DUP1 REVERT JUMPDEST POP PUSH1 0x4 CALLDATASIZE LT PUSH2 0x88 JUMPI PUSH1 0x0 CALLDATALOAD PUSH1 0xE0 SHR DUP1 PUSH4 0x763131A0 GT PUSH2 0x5B JUMPI DUP1 PUSH4 0x763131A0 EQ PUSH2 0x12B JUMPI DUP1 PUSH4 0x80B2EDD8 EQ PUSH2 0x13E JUMPI DUP1 PUSH4 0xCB23BCB5 EQ PUSH2 0x151 JUMPI DUP1 PUSH4 0xD1F807D8 EQ PUSH2 0x164 JUMPI PUSH1 0x0 DUP1 REVERT JUMPDEST DUP1 PUSH4 0x9824A80 EQ PUSH2 0x8D JUMPI DUP1 PUSH4 0xA009097 EQ PUSH2 0xA2 JUMPI DUP1 PUSH4 0x31E658A5 EQ PUSH2 0xD2 JUMPI DUP1 PUSH4 0x5893253C EQ PUSH2 0x102 JUMPI JUMPDEST PUSH1 0x0 DUP1 REVERT JUMPDEST PUSH2 0xA0 PUSH2 0x9B CALLDATASIZE PUSH1 0x4 PUSH2 0x400 JUMP JUMPDEST PUSH2 0x17B JUMP JUMPDEST STOP JUMPDEST PUSH1 0x0 SLOAD PUSH2 0xB5 SWAP1 PUSH1 0x1 PUSH1 0x1 PUSH1 0xA0 SHL SUB AND DUP2 JUMP JUMPDEST PUSH1 0x40 MLOAD PUSH1 0x1 PUSH1 0x1 PUSH1 0xA0 SHL SUB SWAP1 SWAP2 AND DUP2 MSTORE PUSH1 0x20 ADD JUMPDEST PUSH1 0x40 MLOAD DUP1 SWAP2 SUB SWAP1 RETURN JUMPDEST PUSH2 0xF5 PUSH2 0xE0 CALLDATASIZE PUSH1 0x4 PUSH2 0x400 JUMP JUMPDEST PUSH1 0x2 PUSH1 0x20 MSTORE PUSH1 0x0 SWAP1 DUP2 MSTORE PUSH1 0x40 SWAP1 KECCAK256 SLOAD PUSH1 0xFF AND DUP2 JUMP JUMPDEST PUSH1 0x40 MLOAD PUSH2 0xC9 SWAP2 SWAP1 PUSH2 0x446 JUMP JUMPDEST PUSH2 0xB5 PUSH2 0x110 CALLDATASIZE PUSH1 0x4 PUSH2 0x46E JUMP JUMPDEST PUSH1 0x3 PUSH1 0x20 MSTORE PUSH1 0x0 SWAP1 DUP2 MSTORE PUSH1 0x40 SWAP1 KECCAK256 SLOAD PUSH1 0x1 PUSH1 0x1 PUSH1 0xA0 SHL SUB AND DUP2 JUMP JUMPDEST PUSH2 0xA0 PUSH2 0x139 CALLDATASIZE PUSH1 0x4 PUSH2 0x400 JUMP JUMPDEST PUSH2 0x261 JUMP JUMPDEST PUSH2 0xA0 PUSH2 0x14C CALLDATASIZE PUSH1 0x4 PUSH2 0x400 JUMP JUMPDEST PUSH2 0x2C9 JUMP JUMPDEST PUSH1 0x1 SLOAD PUSH2 0xB5 SWAP1 PUSH1 0x1 PUSH1 0x1 PUSH1 0xA0 SHL SUB AND DUP2 JUMP JUMPDEST PUSH2 0x16D PUSH1 0x4 SLOAD DUP2 JUMP JUMPDEST PUSH1 0x40 MLOAD SWAP1 DUP2 MSTORE PUSH1 0x20 ADD PUSH2 0xC9 JUMP JUMPDEST PUSH1 0x1 PUSH1 0x1 PUSH1 0xA0 SHL SUB DUP2 AND PUSH1 0x0 SWAP1 DUP2 MSTORE PUSH1 0x2 PUSH1 0x20 DUP2 SWAP1 MSTORE PUSH1 0x40 DUP3 KECCAK256 SLOAD PUSH1 0xFF AND SWAP1 DUP2 GT ISZERO PUSH2 0x1A9 JUMPI PUSH2 0x1A9 PUSH2 0x430 JUMP JUMPDEST EQ PUSH2 0x206 JUMPI PUSH1 0x40 MLOAD PUSH3 0x461BCD PUSH1 0xE5 SHL DUP2 MSTORE PUSH1 0x20 PUSH1 0x4 DUP3 ADD MSTORE PUSH1 0x22 PUSH1 0x24 DUP3 ADD MSTORE PUSH32 0x546F6B656E20616C72656164792070656E64696E672F20726567697374657265 PUSH1 0x44 DUP3 ADD MSTORE PUSH2 0x6421 PUSH1 0xF0 SHL PUSH1 0x64 DUP3 ADD MSTORE PUSH1 0x84 ADD JUMPDEST PUSH1 0x40 MLOAD DUP1 SWAP2 SUB SWAP1 REVERT JUMPDEST PUSH1 0x1 PUSH1 0x1 PUSH1 0xA0 SHL SUB DUP2 AND PUSH1 0x0 DUP2 DUP2 MSTORE PUSH1 0x2 PUSH1 0x20 SWAP1 DUP2 MSTORE PUSH1 0x40 SWAP2 DUP3 SWAP1 KECCAK256 DUP1 SLOAD PUSH1 0xFF NOT AND PUSH1 0x1 OR SWAP1 SSTORE SWAP1 MLOAD SWAP2 DUP3 MSTORE PUSH32 0x750347718CF11F205B67495B45C5173447387523F3175C795EE6E1A2BBCDC350 SWAP2 ADD JUMPDEST PUSH1 0x40 MLOAD DUP1 SWAP2 SUB SWAP1 LOG1 POP JUMP JUMPDEST PUSH1 0x0 SLOAD PUSH1 0x1 PUSH1 0x1 PUSH1 0xA0 SHL SUB AND CALLER EQ PUSH2 0x27B JUMPI PUSH2 0x27B PUSH2 0x487 JUMP JUMPDEST PUSH1 0x1 DUP1 SLOAD PUSH1 0x1 PUSH1 0x1 PUSH1 0xA0 SHL SUB NOT AND PUSH1 0x1 PUSH1 0x1 PUSH1 0xA0 SHL SUB DUP4 AND SWAP1 DUP2 OR SWAP1 SWAP2 SSTORE PUSH1 0x40 MLOAD SWAP1 DUP2 MSTORE PUSH32 0x7E8CE0BDE07DA6B99AEDF3ACF71A4AB99699F774D164BE03D69BFE6D5A6F5272 SWAP1 PUSH1 0x20 ADD PUSH2 0x256 JUMP JUMPDEST PUSH1 0x1 SLOAD PUSH1 0x1 PUSH1 0x1 PUSH1 0xA0 SHL SUB AND CALLER EQ PUSH2 0x2E3 JUMPI PUSH2 0x2E3 PUSH2 0x487 JUMP JUMPDEST PUSH1 0x1 PUSH1 0x1 PUSH1 0x1 PUSH1 0xA0 SHL SUB DUP3 AND PUSH1 0x0 SWAP1 DUP2 MSTORE PUSH1 0x2 PUSH1 0x20 DUP2 SWAP1 MSTORE PUSH1 0x40 SWAP1 SWAP2 KECCAK256 SLOAD PUSH1 0xFF AND SWAP1 DUP2 GT ISZERO PUSH2 0x314 JUMPI PUSH2 0x314 PUSH2 0x430 JUMP JUMPDEST EQ PUSH2 0x36C JUMPI PUSH1 0x40 MLOAD PUSH3 0x461BCD PUSH1 0xE5 SHL DUP2 MSTORE PUSH1 0x20 PUSH1 0x4 DUP3 ADD MSTORE PUSH1 0x22 PUSH1 0x24 DUP3 ADD MSTORE PUSH32 0x546F6B656E206973206E6F742070656E64696E6720726567697374726174696F PUSH1 0x44 DUP3 ADD MSTORE PUSH2 0x6E21 PUSH1 0xF0 SHL PUSH1 0x64 DUP3 ADD MSTORE PUSH1 0x84 ADD PUSH2 0x1FD JUMP JUMPDEST PUSH1 0x1 PUSH1 0x4 PUSH1 0x0 DUP3 DUP3 SLOAD PUSH2 0x37F SWAP2 SWAP1 PUSH2 0x49D JUMP JUMPDEST SWAP1 SWAP2 SSTORE POP POP PUSH1 0x4 SLOAD PUSH1 0x0 SWAP1 DUP2 MSTORE PUSH1 0x3 PUSH1 0x20 SWAP1 DUP2 MSTORE PUSH1 0x40 DUP1 DUP4 KECCAK256 DUP1 SLOAD PUSH1 0x1 PUSH1 0x1 PUSH1 0xA0 SHL SUB NOT AND PUSH1 0x1 PUSH1 0x1 PUSH1 0xA0 SHL SUB DUP7 AND SWAP1 DUP2 OR SWAP1 SWAP2 SSTORE DUP4 MSTORE PUSH1 0x2 SWAP2 DUP3 SWAP1 MSTORE SWAP1 SWAP2 KECCAK256 DUP1 SLOAD PUSH1 0xFF NOT AND PUSH1 0x1 DUP4 MUL OR SWAP1 SSTORE POP PUSH32 0xD7AA35C4DFADA1A1408FBCA910F9D1A5FB7827F7F5E2EE3BAFB5907D22C7C85E PUSH1 0x4 SLOAD PUSH1 0x40 MLOAD PUSH2 0x256 SWAP2 DUP2 MSTORE PUSH1 0x20 ADD SWAP1 JUMP JUMPDEST PUSH1 0x0 PUSH1 0x20 DUP3 DUP5 SUB SLT ISZERO PUSH2 0x412 JUMPI PUSH1 0x0 DUP1 REVERT JUMPDEST DUP2 CALLDATALOAD PUSH1 0x1 PUSH1 0x1 PUSH1 0xA0 SHL SUB DUP2 AND DUP2 EQ PUSH2 0x429 JUMPI PUSH1 0x0 DUP1 REVERT JUMPDEST SWAP4 SWAP3 POP POP POP JUMP JUMPDEST PUSH4 0x4E487B71 PUSH1 0xE0 SHL PUSH1 0x0 MSTORE PUSH1 0x21 PUSH1 0x4 MSTORE PUSH1 0x24 PUSH1 0x0 REVERT JUMPDEST PUSH1 0x20 DUP2 ADD PUSH1 0x3 DUP4 LT PUSH2 0x468 JUMPI PUSH4 0x4E487B71 PUSH1 0xE0 SHL PUSH1 0x0 MSTORE PUSH1 0x21 PUSH1 0x4 MSTORE PUSH1 0x24 PUSH1 0x0 REVERT JUMPDEST SWAP2 SWAP1 MSTORE SWAP1 JUMP JUMPDEST PUSH1 0x0 PUSH1 0x20 DUP3 DUP5 SUB SLT ISZERO PUSH2 0x480 JUMPI PUSH1 0x0 DUP1 REVERT JUMPDEST POP CALLDATALOAD SWAP2 SWAP1 POP JUMP JUMPDEST PUSH4 0x4E487B71 PUSH1 0xE0 SHL PUSH1 0x0 MSTORE PUSH1 0x1 PUSH1 0x4 MSTORE PUSH1 0x24 PUSH1 0x0 REVERT JUMPDEST DUP1 DUP3 ADD DUP1 DUP3 GT ISZERO PUSH2 0x4BE JUMPI PUSH4 0x4E487B71 PUSH1 0xE0 SHL PUSH1 0x0 MSTORE PUSH1 0x11 PUSH1 0x4 MSTORE PUSH1 0x24 PUSH1 0x0 REVERT JUMPDEST SWAP3 SWAP2 POP POP JUMP INVALID LOG2 PUSH5 0x6970667358 0x22 SLT KECCAK256 DUP4 SGT SWAP16 0xA7 BALANCE 0xFC CODECOPY PUSH10 0x13131A4CD352D7545AB0 0x29 PUSH29 0xD9D05AB5C0E4D5AA3CA16B3764736F6C63430008130033000000000000 "},"gasEstimates":{"creation":{"codeDepositCost":"254800","executionCost":"46635","totalCost":"301435"},"external":{"approveToken(address)":"82895","coordinator()":"2349","registerToken(address)":"27893","registry(uint256)":"2533","registryIndex()":"2361","rollup()":"2370","setRollup(address)":"27741","state(address)":"2582"}},"methodIdentifiers":{"approveToken(address)":"80b2edd8","coordinator()":"0a009097","registerToken(address)":"09824a80","registry(uint256)":"5893253c","registryIndex()":"d1f807d8","rollup()":"cb23bcb5","setRollup(address)":"763131a0","state(address)":"31e658a5"}},"storageLayout":{"storage":[{"astId":338,"contract":"contracts/TokenRegistry.sol:TokenRegistry","label":"coordinator","offset":0,"slot":"0","type":"t_address"},{"astId":340,"contract":"contracts/TokenRegistry.sol:TokenRegistry","label":"rollup","offset":0,"slot":"1","type":"t_address"},{"astId":345,"contract":"contracts/TokenRegistry.sol:TokenRegistry","label":"state","offset":0,"slot":"2","type":"t_mapping(t_address,t_enum(TokenRegistration)374)"},{"astId":349,"contract":"contracts/TokenRegistry.sol:TokenRegistry","label":"registry","offset":0,"slot":"3","type":"t_mapping(t_uint256,t_address)"},{"astId":351,"contract":"contracts/TokenRegistry.sol:TokenRegistry","label":"registryIndex","offset":0,"slot":"4","type":"t_uint256"}],"types":{"t_address":{"encoding":"inplace","label":"address","numberOfBytes":"20"},"t_enum(TokenRegistration)374":{"encoding":"inplace","label":"enum TokenRegistration","numberOfBytes":"1"},"t_mapping(t_address,t_enum(TokenRegistration)374)":{"encoding":"mapping","key":"t_address","label":"mapping(address => enum TokenRegistration)","numberOfBytes":"32","value":"t_enum(TokenRegistration)374"},"t_mapping(t_uint256,t_address)":{"encoding":"mapping","key":"t_uint256","label":"mapping(uint256 => address)","numberOfBytes":"32","value":"t_address"},"t_uint256":{"encoding":"inplace","label":"uint256","numberOfBytes":"32"}}},"userdoc":{"events":{"RollupSet(address)":{"notice":"EVENTS ///"}},"kind":"user","methods":{"approveToken(address)":{"notice":"Centralized approval of ERC20 token registry requests"},"constructor":{"notice":"Instantiate the RollupNC's ERC20 Token Registry"},"coordinator()":{"notice":"VARIABLES ///"},"registerToken(address)":{"notice":"Propose a new token be added to the roll-up's exchange network"},"setRollup(address)":{"notice":"Set the address of the contract managing rollup state in a merkle tree"}},"notice":"documented in ITokenRegistry","version":1}}}}