{
  "_format": "hh-sol-artifact-1",
  "contractName": "TokenRegistry",
  "sourceName": "contracts/TokenRegistry.sol",
  "abi": [
    {
      "inputs": [],
      "stateMutability": "nonpayable",
      "type": "constructor"
    },
    {
      "anonymous": false,
      "inputs": [
        {
          "indexed": false,
          "internalType": "address",
          "name": "_rollup",
          "type": "address"
        }
      ],
      "name": "RollupSet",
      "type": "event"
    },
    {
      "anonymous": false,
      "inputs": [
        {
          "indexed": false,
          "internalType": "address",
          "name": "_token",
          "type": "address"
        }
      ],
      "name": "TokenPending",
      "type": "event"
    },
    {
      "anonymous": false,
      "inputs": [
        {
          "indexed": false,
          "internalType": "uint256",
          "name": "_index",
          "type": "uint256"
        }
      ],
      "name": "TokenRegistered",
      "type": "event"
    },
    {
      "inputs": [
        {
          "internalType": "address",
          "name": "_token",
          "type": "address"
        }
      ],
      "name": "approveToken",
      "outputs": [],
      "stateMutability": "nonpayable",
      "type": "function"
    },
    {
      "inputs": [],
      "name": "coordinator",
      "outputs": [
        {
          "internalType": "address",
          "name": "",
          "type": "address"
        }
      ],
      "stateMutability": "view",
      "type": "function"
    },
    {
      "inputs": [
        {
          "internalType": "address",
          "name": "_token",
          "type": "address"
        }
      ],
      "name": "registerToken",
      "outputs": [],
      "stateMutability": "nonpayable",
      "type": "function"
    },
    {
      "inputs": [
        {
          "internalType": "uint256",
          "name": "",
          "type": "uint256"
        }
      ],
      "name": "registry",
      "outputs": [
        {
          "internalType": "address",
          "name": "",
          "type": "address"
        }
      ],
      "stateMutability": "view",
      "type": "function"
    },
    {
      "inputs": [],
      "name": "registryIndex",
      "outputs": [
        {
          "internalType": "uint256",
          "name": "",
          "type": "uint256"
        }
      ],
      "stateMutability": "view",
      "type": "function"
    },
    {
      "inputs": [],
      "name": "rollup",
      "outputs": [
        {
          "internalType": "address",
          "name": "",
          "type": "address"
        }
      ],
      "stateMutability": "view",
      "type": "function"
    },
    {
      "inputs": [
        {
          "internalType": "address",
          "name": "_rollup",
          "type": "address"
        }
      ],
      "name": "setRollup",
      "outputs": [],
      "stateMutability": "nonpayable",
      "type": "function"
    },
    {
      "inputs": [
        {
          "internalType": "address",
          "name": "",
          "type": "address"
        }
      ],
      "name": "state",
      "outputs": [
        {
          "internalType": "enum TokenRegistration",
          "name": "",
          "type": "uint8"
        }
      ],
      "stateMutability": "view",
      "type": "function"
    }
  ],
  "bytecode": "0x608060405234801561001057600080fd5b50600080546001600160a01b0319163317905560016004556104fa806100376000396000f3fe608060405234801561001057600080fd5b50600436106100885760003560e01c8063763131a01161005b578063763131a01461012b57806380b2edd81461013e578063cb23bcb514610151578063d1f807d81461016457600080fd5b806309824a801461008d5780630a009097146100a257806331e658a5146100d25780635893253c14610102575b600080fd5b6100a061009b366004610400565b61017b565b005b6000546100b5906001600160a01b031681565b6040516001600160a01b0390911681526020015b60405180910390f35b6100f56100e0366004610400565b60026020526000908152604090205460ff1681565b6040516100c99190610446565b6100b561011036600461046e565b6003602052600090815260409020546001600160a01b031681565b6100a0610139366004610400565b610261565b6100a061014c366004610400565b6102c9565b6001546100b5906001600160a01b031681565b61016d60045481565b6040519081526020016100c9565b6001600160a01b038116600090815260026020819052604082205460ff16908111156101a9576101a9610430565b146102065760405162461bcd60e51b815260206004820152602260248201527f546f6b656e20616c72656164792070656e64696e672f20726567697374657265604482015261642160f01b60648201526084015b60405180910390fd5b6001600160a01b038116600081815260026020908152604091829020805460ff1916600117905590519182527f750347718cf11f205b67495b45c5173447387523f3175c795ee6e1a2bbcdc35091015b60405180910390a150565b6000546001600160a01b0316331461027b5761027b610487565b600180546001600160a01b0319166001600160a01b0383169081179091556040519081527f7e8ce0bde07da6b99aedf3acf71a4ab99699f774d164be03d69bfe6d5a6f527290602001610256565b6001546001600160a01b031633146102e3576102e3610487565b60016001600160a01b03821660009081526002602081905260409091205460ff169081111561031457610314610430565b1461036c5760405162461bcd60e51b815260206004820152602260248201527f546f6b656e206973206e6f742070656e64696e6720726567697374726174696f6044820152616e2160f01b60648201526084016101fd565b60016004600082825461037f919061049d565b9091555050600454600090815260036020908152604080832080546001600160a01b0319166001600160a01b0386169081179091558352600291829052909120805460ff191660018302179055507fd7aa35c4dfada1a1408fbca910f9d1a5fb7827f7f5e2ee3bafb5907d22c7c85e60045460405161025691815260200190565b60006020828403121561041257600080fd5b81356001600160a01b038116811461042957600080fd5b9392505050565b634e487b7160e01b600052602160045260246000fd5b602081016003831061046857634e487b7160e01b600052602160045260246000fd5b91905290565b60006020828403121561048057600080fd5b5035919050565b634e487b7160e01b600052600160045260246000fd5b808201808211156104be57634e487b7160e01b600052601160045260246000fd5b9291505056fea264697066735822122083139fa731fc396913131a4cd352d7545ab0297cd9d05ab5c0e4d5aa3ca16b3764736f6c63430008130033",
  "linkReferences": {},
  "deployedLinkReferences": {}
}