{
  "_format": "hh-sol-artifact-1",
  "contractName": "PoseidonT5",
  "sourceName": "contracts/libraries/Poseidon.sol",
  "abi": [
    {
      "inputs": [
        {
          "internalType": "uint256[4]",
          "name": "",
          "type": "uint256[4]"
        }
      ],
      "name": "poseidon",
      "outputs": [
        {
          "internalType": "uint256",
          "name": "",
          "type": "uint256"
        }
      ],
      "stateMutability": "pure",
      "type": "function"
    }
  ],
  "bytecode": "0x61011761003a600b82828239805160001a60731461002d57634e487b7160e01b600052600060045260246000fd5b30600052607381538281f3fe730000000000000000000000000000000000000000301460806040526004361060335760003560e01c8063248f6677146038575b600080fd5b60496043366004605b565b50600090565b60405190815260200160405180910390f35b600060808284031215606c57600080fd5b82601f830112607a57600080fd5b6040516080810181811067ffffffffffffffff8211171560aa57634e487b7160e01b600052604160045260246000fd5b60405280608084018581111560be57600080fd5b845b8181101560d657803583526020928301920160c0565b50919594505050505056fea2646970667358221220bcca90c6b07aafb469a1e28a68c69f9a3a840185b06e3e6879662bdc8e20721564736f6c63430008130033",
  "linkReferences": {},
  "deployedLinkReferences": {}
}